{
  "contractName": "Pong42",
  "abi": [
    {
      "inputs": [],
      "stateMutability": "nonpayable",
      "type": "constructor"
    },
    {
      "anonymous": false,
      "inputs": [
        {
          "indexed": true,
          "internalType": "address",
          "name": "owner",
          "type": "address"
        },
        {
          "indexed": true,
          "internalType": "address",
          "name": "spender",
          "type": "address"
        },
        {
          "indexed": false,
          "internalType": "uint256",
          "name": "value",
          "type": "uint256"
        }
      ],
      "name": "Approval",
      "type": "event"
    },
    {
      "anonymous": false,
      "inputs": [
        {
          "indexed": true,
          "internalType": "address",
          "name": "from",
          "type": "address"
        },
        {
          "indexed": true,
          "internalType": "address",
          "name": "to",
          "type": "address"
        },
        {
          "indexed": false,
          "internalType": "uint256",
          "name": "value",
          "type": "uint256"
        }
      ],
      "name": "Transfer",
      "type": "event"
    },
    {
      "inputs": [
        {
          "internalType": "address",
          "name": "owner",
          "type": "address"
        },
        {
          "internalType": "address",
          "name": "spender",
          "type": "address"
        }
      ],
      "name": "allowance",
      "outputs": [
        {
          "internalType": "uint256",
          "name": "",
          "type": "uint256"
        }
      ],
      "stateMutability": "view",
      "type": "function",
      "constant": true
    },
    {
      "inputs": [
        {
          "internalType": "address",
          "name": "spender",
          "type": "address"
        },
        {
          "internalType": "uint256",
          "name": "amount",
          "type": "uint256"
        }
      ],
      "name": "approve",
      "outputs": [
        {
          "internalType": "bool",
          "name": "",
          "type": "bool"
        }
      ],
      "stateMutability": "nonpayable",
      "type": "function"
    },
    {
      "inputs": [
        {
          "internalType": "address",
          "name": "account",
          "type": "address"
        }
      ],
      "name": "balanceOf",
      "outputs": [
        {
          "internalType": "uint256",
          "name": "",
          "type": "uint256"
        }
      ],
      "stateMutability": "view",
      "type": "function",
      "constant": true
    },
    {
      "inputs": [],
      "name": "cap",
      "outputs": [
        {
          "internalType": "uint256",
          "name": "",
          "type": "uint256"
        }
      ],
      "stateMutability": "view",
      "type": "function",
      "constant": true
    },
    {
      "inputs": [],
      "name": "decimals",
      "outputs": [
        {
          "internalType": "uint8",
          "name": "",
          "type": "uint8"
        }
      ],
      "stateMutability": "view",
      "type": "function",
      "constant": true
    },
    {
      "inputs": [
        {
          "internalType": "address",
          "name": "spender",
          "type": "address"
        },
        {
          "internalType": "uint256",
          "name": "subtractedValue",
          "type": "uint256"
        }
      ],
      "name": "decreaseAllowance",
      "outputs": [
        {
          "internalType": "bool",
          "name": "",
          "type": "bool"
        }
      ],
      "stateMutability": "nonpayable",
      "type": "function"
    },
    {
      "inputs": [
        {
          "internalType": "address",
          "name": "spender",
          "type": "address"
        },
        {
          "internalType": "uint256",
          "name": "addedValue",
          "type": "uint256"
        }
      ],
      "name": "increaseAllowance",
      "outputs": [
        {
          "internalType": "bool",
          "name": "",
          "type": "bool"
        }
      ],
      "stateMutability": "nonpayable",
      "type": "function"
    },
    {
      "inputs": [],
      "name": "name",
      "outputs": [
        {
          "internalType": "string",
          "name": "",
          "type": "string"
        }
      ],
      "stateMutability": "view",
      "type": "function",
      "constant": true
    },
    {
      "inputs": [],
      "name": "symbol",
      "outputs": [
        {
          "internalType": "string",
          "name": "",
          "type": "string"
        }
      ],
      "stateMutability": "view",
      "type": "function",
      "constant": true
    },
    {
      "inputs": [],
      "name": "totalSupply",
      "outputs": [
        {
          "internalType": "uint256",
          "name": "",
          "type": "uint256"
        }
      ],
      "stateMutability": "view",
      "type": "function",
      "constant": true
    },
    {
      "inputs": [
        {
          "internalType": "address",
          "name": "to",
          "type": "address"
        },
        {
          "internalType": "uint256",
          "name": "amount",
          "type": "uint256"
        }
      ],
      "name": "transfer",
      "outputs": [
        {
          "internalType": "bool",
          "name": "",
          "type": "bool"
        }
      ],
      "stateMutability": "nonpayable",
      "type": "function"
    },
    {
      "inputs": [
        {
          "internalType": "address",
          "name": "from",
          "type": "address"
        },
        {
          "internalType": "address",
          "name": "to",
          "type": "address"
        },
        {
          "internalType": "uint256",
          "name": "amount",
          "type": "uint256"
        }
      ],
      "name": "transferFrom",
      "outputs": [
        {
          "internalType": "bool",
          "name": "",
          "type": "bool"
        }
      ],
      "stateMutability": "nonpayable",
      "type": "function"
    },
    {
      "inputs": [
        {
          "internalType": "address",
          "name": "addr",
          "type": "address"
        },
        {
          "internalType": "uint256",
          "name": "ammount",
          "type": "uint256"
        }
      ],
      "name": "minting",
      "outputs": [],
      "stateMutability": "nonpayable",
      "type": "function"
    }
  ],
  "bytecode": "0x60a06040523480156200001157600080fd5b5060408051808201825260068152653837b7339a1960d11b60208083019182528351808501909452600380855262381a1960e91b9185019190915282516103e894926200005f9291620000ad565b50805162000075906004906020840190620000ad565b50505060008111620000a45760405162461bcd60e51b81526004016200009b9062000153565b60405180910390fd5b608052620001c7565b828054620000bb906200018a565b90600052602060002090601f016020900481019282620000df57600085556200012a565b82601f10620000fa57805160ff19168380011785556200012a565b828001600101855582156200012a579182015b828111156200012a5782518255916020019190600101906200010d565b50620001389291506200013c565b5090565b5b808211156200013857600081556001016200013d565b60208082526015908201527f45524332304361707065643a2063617020697320300000000000000000000000604082015260600190565b6002810460018216806200019f57607f821691505b60208210811415620001c157634e487b7160e01b600052602260045260246000fd5b50919050565b608051610b61620001e360003960006102d00152610b616000f3fe608060405234801561001057600080fd5b50600436106100cf5760003560e01c8063355274ea1161008c57806395d89b411161006657806395d89b4114610192578063a457c2d71461019a578063a9059cbb146101ad578063dd62ed3e146101c0576100cf565b8063355274ea14610164578063395093511461016c57806370a082311461017f576100cf565b806306fdde03146100d4578063095ea7b3146100f257806318160ddd14610112578063233ebc8b1461012757806323b872dd1461013c578063313ce5671461014f575b600080fd5b6100dc6101d3565b6040516100e99190610824565b60405180910390f35b6101056101003660046107f0565b610265565b6040516100e99190610819565b61011a610287565b6040516100e99190610ab5565b61013a6101353660046107f0565b61028d565b005b61010561014a3660046107b5565b61029b565b6101576102c9565b6040516100e99190610abe565b61011a6102ce565b61010561017a3660046107f0565b6102f2565b61011a61018d366004610762565b61033e565b6100dc61035d565b6101056101a83660046107f0565b61036c565b6101056101bb3660046107f0565b6103d6565b61011a6101ce366004610783565b6103ee565b6060600380546101e290610af0565b80601f016020809104026020016040519081016040528092919081815260200182805461020e90610af0565b801561025b5780601f106102305761010080835404028352916020019161025b565b820191906000526020600020905b81548152906001019060200180831161023e57829003601f168201915b5050505050905090565b600080610270610419565b905061027d81858561041d565b5060019392505050565b60025490565b61029782826104d1565b5050565b6000806102a6610419565b90506102b3858285610514565b6102be85858561055e565b506001949350505050565b601290565b7f000000000000000000000000000000000000000000000000000000000000000090565b6000806102fd610419565b6001600160a01b0380821660009081526001602090815260408083209389168352929052205490915061027d9082908690610339908790610acc565b61041d565b6001600160a01b0381166000908152602081905260409020545b919050565b6060600480546101e290610af0565b600080610377610419565b6001600160a01b03808216600090815260016020908152604080832093891683529290522054909150838110156103c95760405162461bcd60e51b81526004016103c090610a39565b60405180910390fd5b6102be828686840361041d565b6000806103e1610419565b905061027d81858561055e565b6001600160a01b03918216600090815260016020908152604080832093909416825291909152205490565b3390565b6001600160a01b0383166104435760405162461bcd60e51b81526004016103c0906109f5565b6001600160a01b0382166104695760405162461bcd60e51b81526004016103c0906108ba565b6001600160a01b0380841660008181526001602090815260408083209487168084529490915290819020849055517f8c5be1e5ebec7d5bd14f71427d1e84f3dd0314c0f7b2291e5b200ac8c7c3b925906104c4908590610ab5565b60405180910390a3505050565b6104d96102ce565b816104e2610287565b6104ec9190610acc565b111561050a5760405162461bcd60e51b81526004016103c0906109be565b6102978282610682565b600061052084846103ee565b90506000198114610558578181101561054b5760405162461bcd60e51b81526004016103c0906108fc565b610558848484840361041d565b50505050565b6001600160a01b0383166105845760405162461bcd60e51b81526004016103c090610979565b6001600160a01b0382166105aa5760405162461bcd60e51b81526004016103c090610877565b6105b5838383610746565b6001600160a01b038316600090815260208190526040902054818110156105ee5760405162461bcd60e51b81526004016103c090610933565b6001600160a01b03808516600090815260208190526040808220858503905591851681529081208054849290610625908490610acc565b92505081905550826001600160a01b0316846001600160a01b03167fddf252ad1be2c89b69c2b068fc378daa952ba7f163c4a11628f55a4df523b3ef8460405161066f9190610ab5565b60405180910390a3610558848484610746565b6001600160a01b0382166106a85760405162461bcd60e51b81526004016103c090610a7e565b6106b460008383610746565b80600260008282546106c69190610acc565b90915550506001600160a01b038216600090815260208190526040812080548392906106f3908490610acc565b90915550506040516001600160a01b038316906000907fddf252ad1be2c89b69c2b068fc378daa952ba7f163c4a11628f55a4df523b3ef90610736908590610ab5565b60405180910390a3610297600083835b505050565b80356001600160a01b038116811461035857600080fd5b600060208284031215610773578081fd5b61077c8261074b565b9392505050565b60008060408385031215610795578081fd5b61079e8361074b565b91506107ac6020840161074b565b90509250929050565b6000806000606084860312156107c9578081fd5b6107d28461074b565b92506107e06020850161074b565b9150604084013590509250925092565b60008060408385031215610802578182fd5b61080b8361074b565b946020939093013593505050565b901515815260200190565b6000602080835283518082850152825b8181101561085057858101830151858201604001528201610834565b818111156108615783604083870101525b50601f01601f1916929092016040019392505050565b60208082526023908201527f45524332303a207472616e7366657220746f20746865207a65726f206164647260408201526265737360e81b606082015260800190565b60208082526022908201527f45524332303a20617070726f766520746f20746865207a65726f206164647265604082015261737360f01b606082015260800190565b6020808252601d908201527f45524332303a20696e73756666696369656e7420616c6c6f77616e6365000000604082015260600190565b60208082526026908201527f45524332303a207472616e7366657220616d6f756e7420657863656564732062604082015265616c616e636560d01b606082015260800190565b60208082526025908201527f45524332303a207472616e736665722066726f6d20746865207a65726f206164604082015264647265737360d81b606082015260800190565b60208082526019908201527f45524332304361707065643a2063617020657863656564656400000000000000604082015260600190565b60208082526024908201527f45524332303a20617070726f76652066726f6d20746865207a65726f206164646040820152637265737360e01b606082015260800190565b60208082526025908201527f45524332303a2064656372656173656420616c6c6f77616e63652062656c6f77604082015264207a65726f60d81b606082015260800190565b6020808252601f908201527f45524332303a206d696e7420746f20746865207a65726f206164647265737300604082015260600190565b90815260200190565b60ff91909116815260200190565b60008219821115610aeb57634e487b7160e01b81526011600452602481fd5b500190565b600281046001821680610b0457607f821691505b60208210811415610b2557634e487b7160e01b600052602260045260246000fd5b5091905056fea26469706673582212203e9a5b72bcca1af6c6bd51f706a68c980e9ae724c4b4c4abdd8e34933fcd529a64736f6c63430008000033",
  "immutableReferences": {
    "673": [
      {
        "length": 32,
        "start": 720
      }
    ]
  },
  "source": "pragma solidity ^0.8.0;\n\nimport \"@openzeppelin/contracts/token/ERC20/extensions/ERC20Capped.sol\"; \n\ncontract Pong42 is ERC20Capped{\n    constructor()  ERC20(\"pong42\", \"p42\") ERC20Capped(1000) {\n    }\n    function minting(address addr, uint256 ammount) external {\n        _mint(addr, ammount);\n    }\n \n}\n",
  "sourcePath": "/goinfre/amya/tokenizer_42/deployment/contracts/Pong42.sol",
  "compiler": {
    "name": "solc",
    "version": "0.8.0+commit.c7dfd78e.Emscripten.clang"
  },
  "schemaVersion": "3.4.16",
  "updatedAt": "2024-03-03T03:23:44.741Z",
  "networkType": "ethereum",
  "devdoc": {
    "kind": "dev",
    "methods": {
      "allowance(address,address)": {
        "details": "See {IERC20-allowance}."
      },
      "approve(address,uint256)": {
        "details": "See {IERC20-approve}. NOTE: If `amount` is the maximum `uint256`, the allowance is not updated on `transferFrom`. This is semantically equivalent to an infinite approval. Requirements: - `spender` cannot be the zero address."
      },
      "balanceOf(address)": {
        "details": "See {IERC20-balanceOf}."
      },
      "cap()": {
        "details": "Returns the cap on the token's total supply."
      },
      "decimals()": {
        "details": "Returns the number of decimals used to get its user representation. For example, if `decimals` equals `2`, a balance of `505` tokens should be displayed to a user as `5.05` (`505 / 10 ** 2`). Tokens usually opt for a value of 18, imitating the relationship between Ether and Wei. This is the value {ERC20} uses, unless this function is overridden; NOTE: This information is only used for _display_ purposes: it in no way affects any of the arithmetic of the contract, including {IERC20-balanceOf} and {IERC20-transfer}."
      },
      "decreaseAllowance(address,uint256)": {
        "details": "Atomically decreases the allowance granted to `spender` by the caller. This is an alternative to {approve} that can be used as a mitigation for problems described in {IERC20-approve}. Emits an {Approval} event indicating the updated allowance. Requirements: - `spender` cannot be the zero address. - `spender` must have allowance for the caller of at least `subtractedValue`."
      },
      "increaseAllowance(address,uint256)": {
        "details": "Atomically increases the allowance granted to `spender` by the caller. This is an alternative to {approve} that can be used as a mitigation for problems described in {IERC20-approve}. Emits an {Approval} event indicating the updated allowance. Requirements: - `spender` cannot be the zero address."
      },
      "name()": {
        "details": "Returns the name of the token."
      },
      "symbol()": {
        "details": "Returns the symbol of the token, usually a shorter version of the name."
      },
      "totalSupply()": {
        "details": "See {IERC20-totalSupply}."
      },
      "transfer(address,uint256)": {
        "details": "See {IERC20-transfer}. Requirements: - `to` cannot be the zero address. - the caller must have a balance of at least `amount`."
      },
      "transferFrom(address,address,uint256)": {
        "details": "See {IERC20-transferFrom}. Emits an {Approval} event indicating the updated allowance. This is not required by the EIP. See the note at the beginning of {ERC20}. NOTE: Does not update the allowance if the current allowance is the maximum `uint256`. Requirements: - `from` and `to` cannot be the zero address. - `from` must have a balance of at least `amount`. - the caller must have allowance for ``from``'s tokens of at least `amount`."
      }
    },
    "version": 1
  },
  "userdoc": {
    "kind": "user",
    "methods": {},
    "version": 1
  }
}