{
  "contractName": "Pong42",
  "abi": [
    {
      "inputs": [],
      "stateMutability": "nonpayable",
      "type": "constructor"
    },
    {
      "anonymous": false,
      "inputs": [
        {
          "indexed": true,
          "internalType": "address",
          "name": "owner",
          "type": "address"
        },
        {
          "indexed": true,
          "internalType": "address",
          "name": "spender",
          "type": "address"
        },
        {
          "indexed": false,
          "internalType": "uint256",
          "name": "value",
          "type": "uint256"
        }
      ],
      "name": "Approval",
      "type": "event"
    },
    {
      "anonymous": false,
      "inputs": [
        {
          "indexed": true,
          "internalType": "address",
          "name": "previousOwner",
          "type": "address"
        },
        {
          "indexed": true,
          "internalType": "address",
          "name": "newOwner",
          "type": "address"
        }
      ],
      "name": "OwnershipTransferred",
      "type": "event"
    },
    {
      "anonymous": false,
      "inputs": [
        {
          "indexed": true,
          "internalType": "address",
          "name": "from",
          "type": "address"
        },
        {
          "indexed": true,
          "internalType": "address",
          "name": "to",
          "type": "address"
        },
        {
          "indexed": false,
          "internalType": "uint256",
          "name": "value",
          "type": "uint256"
        }
      ],
      "name": "Transfer",
      "type": "event"
    },
    {
      "inputs": [
        {
          "internalType": "address",
          "name": "owner",
          "type": "address"
        },
        {
          "internalType": "address",
          "name": "spender",
          "type": "address"
        }
      ],
      "name": "allowance",
      "outputs": [
        {
          "internalType": "uint256",
          "name": "",
          "type": "uint256"
        }
      ],
      "stateMutability": "view",
      "type": "function"
    },
    {
      "inputs": [
        {
          "internalType": "address",
          "name": "spender",
          "type": "address"
        },
        {
          "internalType": "uint256",
          "name": "amount",
          "type": "uint256"
        }
      ],
      "name": "approve",
      "outputs": [
        {
          "internalType": "bool",
          "name": "",
          "type": "bool"
        }
      ],
      "stateMutability": "nonpayable",
      "type": "function"
    },
    {
      "inputs": [
        {
          "internalType": "address",
          "name": "account",
          "type": "address"
        }
      ],
      "name": "balanceOf",
      "outputs": [
        {
          "internalType": "uint256",
          "name": "",
          "type": "uint256"
        }
      ],
      "stateMutability": "view",
      "type": "function"
    },
    {
      "inputs": [],
      "name": "decimals",
      "outputs": [
        {
          "internalType": "uint8",
          "name": "",
          "type": "uint8"
        }
      ],
      "stateMutability": "view",
      "type": "function"
    },
    {
      "inputs": [
        {
          "internalType": "address",
          "name": "spender",
          "type": "address"
        },
        {
          "internalType": "uint256",
          "name": "subtractedValue",
          "type": "uint256"
        }
      ],
      "name": "decreaseAllowance",
      "outputs": [
        {
          "internalType": "bool",
          "name": "",
          "type": "bool"
        }
      ],
      "stateMutability": "nonpayable",
      "type": "function"
    },
    {
      "inputs": [
        {
          "internalType": "address",
          "name": "spender",
          "type": "address"
        },
        {
          "internalType": "uint256",
          "name": "addedValue",
          "type": "uint256"
        }
      ],
      "name": "increaseAllowance",
      "outputs": [
        {
          "internalType": "bool",
          "name": "",
          "type": "bool"
        }
      ],
      "stateMutability": "nonpayable",
      "type": "function"
    },
    {
      "inputs": [],
      "name": "name",
      "outputs": [
        {
          "internalType": "string",
          "name": "",
          "type": "string"
        }
      ],
      "stateMutability": "view",
      "type": "function"
    },
    {
      "inputs": [],
      "name": "owner",
      "outputs": [
        {
          "internalType": "address",
          "name": "",
          "type": "address"
        }
      ],
      "stateMutability": "view",
      "type": "function"
    },
    {
      "inputs": [],
      "name": "renounceOwnership",
      "outputs": [],
      "stateMutability": "nonpayable",
      "type": "function"
    },
    {
      "inputs": [],
      "name": "symbol",
      "outputs": [
        {
          "internalType": "string",
          "name": "",
          "type": "string"
        }
      ],
      "stateMutability": "view",
      "type": "function"
    },
    {
      "inputs": [],
      "name": "totalSupply",
      "outputs": [
        {
          "internalType": "uint256",
          "name": "",
          "type": "uint256"
        }
      ],
      "stateMutability": "view",
      "type": "function"
    },
    {
      "inputs": [
        {
          "internalType": "address",
          "name": "to",
          "type": "address"
        },
        {
          "internalType": "uint256",
          "name": "amount",
          "type": "uint256"
        }
      ],
      "name": "transfer",
      "outputs": [
        {
          "internalType": "bool",
          "name": "",
          "type": "bool"
        }
      ],
      "stateMutability": "nonpayable",
      "type": "function"
    },
    {
      "inputs": [
        {
          "internalType": "address",
          "name": "from",
          "type": "address"
        },
        {
          "internalType": "address",
          "name": "to",
          "type": "address"
        },
        {
          "internalType": "uint256",
          "name": "amount",
          "type": "uint256"
        }
      ],
      "name": "transferFrom",
      "outputs": [
        {
          "internalType": "bool",
          "name": "",
          "type": "bool"
        }
      ],
      "stateMutability": "nonpayable",
      "type": "function"
    },
    {
      "inputs": [
        {
          "internalType": "address",
          "name": "newOwner",
          "type": "address"
        }
      ],
      "name": "transferOwnership",
      "outputs": [],
      "stateMutability": "nonpayable",
      "type": "function"
    },
    {
      "inputs": [
        {
          "internalType": "address",
          "name": "to",
          "type": "address"
        },
        {
          "internalType": "uint256",
          "name": "amount",
          "type": "uint256"
        }
      ],
      "name": "transferTokens",
      "outputs": [
        {
          "internalType": "bool",
          "name": "",
          "type": "bool"
        }
      ],
      "stateMutability": "nonpayable",
      "type": "function"
    },
    {
      "inputs": [
        {
          "internalType": "address",
          "name": "from",
          "type": "address"
        },
        {
          "internalType": "address",
          "name": "to",
          "type": "address"
        },
        {
          "internalType": "uint256",
          "name": "amount",
          "type": "uint256"
        }
      ],
      "name": "transferTokensFrom",
      "outputs": [
        {
          "internalType": "bool",
          "name": "",
          "type": "bool"
        }
      ],
      "stateMutability": "nonpayable",
      "type": "function"
    },
    {
      "inputs": [
        {
          "internalType": "address",
          "name": "account",
          "type": "address"
        }
      ],
      "name": "getTokenBalance",
      "outputs": [
        {
          "internalType": "uint256",
          "name": "",
          "type": "uint256"
        }
      ],
      "stateMutability": "view",
      "type": "function"
    },
    {
      "inputs": [
        {
          "internalType": "address",
          "name": "owner",
          "type": "address"
        },
        {
          "internalType": "address",
          "name": "spender",
          "type": "address"
        }
      ],
      "name": "getTokenAllowance",
      "outputs": [
        {
          "internalType": "uint256",
          "name": "",
          "type": "uint256"
        }
      ],
      "stateMutability": "view",
      "type": "function"
    }
  ],
  "bytecode": "0x60806040523480156200001157600080fd5b50604051806040016040528060068152602001652837b7339a1960d11b81525060405180604001604052806003815260200162381a1960e91b8152508160039080519060200190620000659291906200021b565b5080516200007b9060049060208401906200021b565b5050506200009862000092620000d960201b60201c565b620000dd565b6000620000a46200012f565b620000b49060ff16600a62000369565b620000c490630280de806200045e565b9050620000d2338262000134565b50620004d3565b3390565b600580546001600160a01b038381166001600160a01b0319831681179093556040519116919082907f8be0079c531659141344cd1fd0a4f28419497f9722a3daafe3b4186f6b6457e090600090a35050565b601290565b6001600160a01b038216620001665760405162461bcd60e51b81526004016200015d90620002c1565b60405180910390fd5b620001746000838362000216565b806002600082825462000188919062000301565b90915550506001600160a01b03821660009081526020819052604081208054839290620001b790849062000301565b90915550506040516001600160a01b038316906000907fddf252ad1be2c89b69c2b068fc378daa952ba7f163c4a11628f55a4df523b3ef90620001fc908590620002f8565b60405180910390a3620002126000838362000216565b5050565b505050565b828054620002299062000480565b90600052602060002090601f0160209004810192826200024d576000855562000298565b82601f106200026857805160ff191683800117855562000298565b8280016001018555821562000298579182015b82811115620002985782518255916020019190600101906200027b565b50620002a6929150620002aa565b5090565b5b80821115620002a65760008155600101620002ab565b6020808252601f908201527f45524332303a206d696e7420746f20746865207a65726f206164647265737300604082015260600190565b90815260200190565b60008219821115620003175762000317620004bd565b500190565b80825b600180861162000330575062000360565b818704821115620003455762000345620004bd565b808616156200035357918102915b9490941c9380026200031f565b94509492505050565b60006200037a600019848462000381565b9392505050565b60008262000392575060016200037a565b81620003a1575060006200037a565b8160018114620003ba5760028114620003c557620003f9565b60019150506200037a565b60ff841115620003d957620003d9620004bd565b6001841b915084821115620003f257620003f2620004bd565b506200037a565b5060208310610133831016604e8410600b841016171562000431575081810a838111156200042b576200042b620004bd565b6200037a565b6200044084848460016200031c565b808604821115620004555762000455620004bd565b02949350505050565b60008160001904831182151516156200047b576200047b620004bd565b500290565b6002810460018216806200049557607f821691505b60208210811415620004b757634e487b7160e01b600052602260045260246000fd5b50919050565b634e487b7160e01b600052601160045260246000fd5b610c9780620004e36000396000f3fe608060405234801561001057600080fd5b50600436106101165760003560e01c8063715018a6116100a2578063a9059cbb11610071578063a9059cbb1461021c578063bec3fa171461022f578063dd62ed3e14610242578063ea7ee01014610255578063f2fde38b1461026857610116565b8063715018a6146101e25780638da5cb5b146101ec57806395d89b4114610201578063a457c2d71461020957610116565b8063313ce567116100e9578063313ce5671461018157806339509351146101965780633aecd0e3146101a957806352912042146101bc57806370a08231146101cf57610116565b806306fdde031461011b578063095ea7b31461013957806318160ddd1461015957806323b872dd1461016e575b600080fd5b61012361027b565b604051610130919061092c565b60405180910390f35b61014c6101473660046108e4565b61030d565b6040516101309190610921565b61016161032f565b6040516101309190610bca565b61014c61017c3660046108a9565b610335565b610189610363565b6040516101309190610bd3565b61014c6101a43660046108e4565b610368565b6101616101b736600461085d565b6103b4565b61014c6101ca3660046108a9565b6103c7565b6101616101dd36600461085d565b6103f7565b6101ea610412565b005b6101f4610466565b604051610130919061090d565b610123610475565b61014c6102173660046108e4565b610484565b61014c61022a3660046108e4565b6104e5565b61014c61023d3660046108e4565b6104fd565b610161610250366004610877565b61051a565b610161610263366004610877565b610545565b6101ea61027636600461085d565b610558565b60606003805461028a90610c10565b80601f01602080910402602001604051908101604052809291908181526020018280546102b690610c10565b80156103035780601f106102d857610100808354040283529160200191610303565b820191906000526020600020905b8154815290600101906020018083116102e657829003601f168201915b5050505050905090565b6000806103186105c9565b90506103258185856105cd565b5060019392505050565b60025490565b6000806103406105c9565b905061034d858285610681565b6103588585856106cb565b506001949350505050565b601290565b6000806103736105c9565b6001600160a01b0380821660009081526001602090815260408083209389168352929052205490915061032590829086906103af908790610be1565b6105cd565b60006103bf826103f7565b90505b919050565b60006103d48484846106cb565b610325846103e06105c9565b846103ed886102506105c9565b6103af9190610bf9565b6001600160a01b031660009081526020819052604090205490565b61041a6105c9565b6001600160a01b031661042b610466565b6001600160a01b03161461045a5760405162461bcd60e51b815260040161045190610ac7565b60405180910390fd5b61046460006107ef565b565b6005546001600160a01b031690565b60606004805461028a90610c10565b60008061048f6105c9565b6001600160a01b03808216600090815260016020908152604080832093891683529290522054909150838110156104d85760405162461bcd60e51b815260040161045190610b85565b61035882868684036105cd565b6000806104f06105c9565b90506103258185856106cb565b600061051161050a6105c9565b84846106cb565b50600192915050565b6001600160a01b03918216600090815260016020908152604080832093909416825291909152205490565b6000610551838361051a565b9392505050565b6105606105c9565b6001600160a01b0316610571610466565b6001600160a01b0316146105975760405162461bcd60e51b815260040161045190610ac7565b6001600160a01b0381166105bd5760405162461bcd60e51b8152600401610451906109c2565b6105c6816107ef565b50565b3390565b6001600160a01b0383166105f35760405162461bcd60e51b815260040161045190610b41565b6001600160a01b0382166106195760405162461bcd60e51b815260040161045190610a08565b6001600160a01b0380841660008181526001602090815260408083209487168084529490915290819020849055517f8c5be1e5ebec7d5bd14f71427d1e84f3dd0314c0f7b2291e5b200ac8c7c3b92590610674908590610bca565b60405180910390a3505050565b600061068d848461051a565b905060001981146106c557818110156106b85760405162461bcd60e51b815260040161045190610a4a565b6106c584848484036105cd565b50505050565b6001600160a01b0383166106f15760405162461bcd60e51b815260040161045190610afc565b6001600160a01b0382166107175760405162461bcd60e51b81526004016104519061097f565b610722838383610841565b6001600160a01b0383166000908152602081905260409020548181101561075b5760405162461bcd60e51b815260040161045190610a81565b6001600160a01b03808516600090815260208190526040808220858503905591851681529081208054849290610792908490610be1565b92505081905550826001600160a01b0316846001600160a01b03167fddf252ad1be2c89b69c2b068fc378daa952ba7f163c4a11628f55a4df523b3ef846040516107dc9190610bca565b60405180910390a36106c5848484610841565b600580546001600160a01b038381166001600160a01b0319831681179093556040519116919082907f8be0079c531659141344cd1fd0a4f28419497f9722a3daafe3b4186f6b6457e090600090a35050565b505050565b80356001600160a01b03811681146103c257600080fd5b60006020828403121561086e578081fd5b61055182610846565b60008060408385031215610889578081fd5b61089283610846565b91506108a060208401610846565b90509250929050565b6000806000606084860312156108bd578081fd5b6108c684610846565b92506108d460208501610846565b9150604084013590509250925092565b600080604083850312156108f6578182fd5b6108ff83610846565b946020939093013593505050565b6001600160a01b0391909116815260200190565b901515815260200190565b6000602080835283518082850152825b818110156109585785810183015185820160400152820161093c565b818111156109695783604083870101525b50601f01601f1916929092016040019392505050565b60208082526023908201527f45524332303a207472616e7366657220746f20746865207a65726f206164647260408201526265737360e81b606082015260800190565b60208082526026908201527f4f776e61626c653a206e6577206f776e657220697320746865207a65726f206160408201526564647265737360d01b606082015260800190565b60208082526022908201527f45524332303a20617070726f766520746f20746865207a65726f206164647265604082015261737360f01b606082015260800190565b6020808252601d908201527f45524332303a20696e73756666696369656e7420616c6c6f77616e6365000000604082015260600190565b60208082526026908201527f45524332303a207472616e7366657220616d6f756e7420657863656564732062604082015265616c616e636560d01b606082015260800190565b6020808252818101527f4f776e61626c653a2063616c6c6572206973206e6f7420746865206f776e6572604082015260600190565b60208082526025908201527f45524332303a207472616e736665722066726f6d20746865207a65726f206164604082015264647265737360d81b606082015260800190565b60208082526024908201527f45524332303a20617070726f76652066726f6d20746865207a65726f206164646040820152637265737360e01b606082015260800190565b60208082526025908201527f45524332303a2064656372656173656420616c6c6f77616e63652062656c6f77604082015264207a65726f60d81b606082015260800190565b90815260200190565b60ff91909116815260200190565b60008219821115610bf457610bf4610c4b565b500190565b600082821015610c0b57610c0b610c4b565b500390565b600281046001821680610c2457607f821691505b60208210811415610c4557634e487b7160e01b600052602260045260246000fd5b50919050565b634e487b7160e01b600052601160045260246000fdfea2646970667358221220da31ef438af9e5839694442a62a20ec0f6bec0c269793ce9c8a90d294175de2a64736f6c63430008000033",
  "immutableReferences": {},
  "source": "// SPDX-License-Identifier: MIT\npragma solidity ^0.8.0;\n\nimport \"@openzeppelin/contracts/token/ERC20/ERC20.sol\";\nimport \"@openzeppelin/contracts/access/Ownable.sol\";\n\ncontract Pong42 is ERC20, Ownable {\n    constructor() ERC20(\"Pong42\", \"p42\") {\n        uint256 initialSupply =  42 * 1000000 * (10 ** uint(decimals()));\n       \n        _mint(msg.sender, initialSupply);\n    }\n\n    function transferTokens(address to, uint256 amount) external returns (bool) {\n        _transfer(_msgSender(), to, amount);\n        return true;\n    }\n\n    function transferTokensFrom(\n        address from,\n        address to,\n        uint256 amount\n    ) external returns (bool) {\n        _transfer(from, to, amount);\n        _approve(\n            from,\n            _msgSender(),\n            allowance(from, _msgSender()) - amount\n        );\n        return true;\n    }\n\n    function getTokenBalance(address account) external view returns (uint256) {\n        return balanceOf(account);\n    }\n\n    function getTokenAllowance(address owner, address spender)\n        external\n        view\n        returns (uint256)\n    {\n        return allowance(owner, spender);\n    }\n}\n",
  "sourcePath": "/goinfre/amya/tokenizer_42/deployment/contracts/Pong42.sol",
  "compiler": {
    "name": "solc",
    "version": "0.8.0+commit.c7dfd78e.Emscripten.clang"
  },
  "schemaVersion": "3.4.16",
  "updatedAt": "2024-03-05T07:08:39.625Z",
  "devdoc": {
    "kind": "dev",
    "methods": {
      "allowance(address,address)": {
        "details": "See {IERC20-allowance}."
      },
      "approve(address,uint256)": {
        "details": "See {IERC20-approve}. NOTE: If `amount` is the maximum `uint256`, the allowance is not updated on `transferFrom`. This is semantically equivalent to an infinite approval. Requirements: - `spender` cannot be the zero address."
      },
      "balanceOf(address)": {
        "details": "See {IERC20-balanceOf}."
      },
      "decimals()": {
        "details": "Returns the number of decimals used to get its user representation. For example, if `decimals` equals `2`, a balance of `505` tokens should be displayed to a user as `5.05` (`505 / 10 ** 2`). Tokens usually opt for a value of 18, imitating the relationship between Ether and Wei. This is the value {ERC20} uses, unless this function is overridden; NOTE: This information is only used for _display_ purposes: it in no way affects any of the arithmetic of the contract, including {IERC20-balanceOf} and {IERC20-transfer}."
      },
      "decreaseAllowance(address,uint256)": {
        "details": "Atomically decreases the allowance granted to `spender` by the caller. This is an alternative to {approve} that can be used as a mitigation for problems described in {IERC20-approve}. Emits an {Approval} event indicating the updated allowance. Requirements: - `spender` cannot be the zero address. - `spender` must have allowance for the caller of at least `subtractedValue`."
      },
      "increaseAllowance(address,uint256)": {
        "details": "Atomically increases the allowance granted to `spender` by the caller. This is an alternative to {approve} that can be used as a mitigation for problems described in {IERC20-approve}. Emits an {Approval} event indicating the updated allowance. Requirements: - `spender` cannot be the zero address."
      },
      "name()": {
        "details": "Returns the name of the token."
      },
      "owner()": {
        "details": "Returns the address of the current owner."
      },
      "renounceOwnership()": {
        "details": "Leaves the contract without owner. It will not be possible to call `onlyOwner` functions anymore. Can only be called by the current owner. NOTE: Renouncing ownership will leave the contract without an owner, thereby removing any functionality that is only available to the owner."
      },
      "symbol()": {
        "details": "Returns the symbol of the token, usually a shorter version of the name."
      },
      "totalSupply()": {
        "details": "See {IERC20-totalSupply}."
      },
      "transfer(address,uint256)": {
        "details": "See {IERC20-transfer}. Requirements: - `to` cannot be the zero address. - the caller must have a balance of at least `amount`."
      },
      "transferFrom(address,address,uint256)": {
        "details": "See {IERC20-transferFrom}. Emits an {Approval} event indicating the updated allowance. This is not required by the EIP. See the note at the beginning of {ERC20}. NOTE: Does not update the allowance if the current allowance is the maximum `uint256`. Requirements: - `from` and `to` cannot be the zero address. - `from` must have a balance of at least `amount`. - the caller must have allowance for ``from``'s tokens of at least `amount`."
      },
      "transferOwnership(address)": {
        "details": "Transfers ownership of the contract to a new account (`newOwner`). Can only be called by the current owner."
      }
    },
    "version": 1
  },
  "userdoc": {
    "kind": "user",
    "methods": {},
    "version": 1
  }
}