{
  "contractName": "MyToken",
  "abi": [
    {
      "inputs": [],
      "stateMutability": "nonpayable",
      "type": "constructor"
    },
    {
      "anonymous": false,
      "inputs": [
        {
          "indexed": true,
          "internalType": "address",
          "name": "owner",
          "type": "address"
        },
        {
          "indexed": true,
          "internalType": "address",
          "name": "spender",
          "type": "address"
        },
        {
          "indexed": false,
          "internalType": "uint256",
          "name": "value",
          "type": "uint256"
        }
      ],
      "name": "Approval",
      "type": "event"
    },
    {
      "anonymous": false,
      "inputs": [
        {
          "indexed": true,
          "internalType": "address",
          "name": "previousOwner",
          "type": "address"
        },
        {
          "indexed": true,
          "internalType": "address",
          "name": "newOwner",
          "type": "address"
        }
      ],
      "name": "OwnershipTransferred",
      "type": "event"
    },
    {
      "anonymous": false,
      "inputs": [
        {
          "indexed": true,
          "internalType": "address",
          "name": "to",
          "type": "address"
        },
        {
          "indexed": false,
          "internalType": "uint256",
          "name": "amount",
          "type": "uint256"
        }
      ],
      "name": "TokensSent",
      "type": "event"
    },
    {
      "anonymous": false,
      "inputs": [
        {
          "indexed": true,
          "internalType": "address",
          "name": "from",
          "type": "address"
        },
        {
          "indexed": true,
          "internalType": "address",
          "name": "to",
          "type": "address"
        },
        {
          "indexed": false,
          "internalType": "uint256",
          "name": "value",
          "type": "uint256"
        }
      ],
      "name": "Transfer",
      "type": "event"
    },
    {
      "inputs": [
        {
          "internalType": "address",
          "name": "owner",
          "type": "address"
        },
        {
          "internalType": "address",
          "name": "spender",
          "type": "address"
        }
      ],
      "name": "allowance",
      "outputs": [
        {
          "internalType": "uint256",
          "name": "",
          "type": "uint256"
        }
      ],
      "stateMutability": "view",
      "type": "function",
      "constant": true
    },
    {
      "inputs": [
        {
          "internalType": "address",
          "name": "spender",
          "type": "address"
        },
        {
          "internalType": "uint256",
          "name": "amount",
          "type": "uint256"
        }
      ],
      "name": "approve",
      "outputs": [
        {
          "internalType": "bool",
          "name": "",
          "type": "bool"
        }
      ],
      "stateMutability": "nonpayable",
      "type": "function"
    },
    {
      "inputs": [
        {
          "internalType": "address",
          "name": "account",
          "type": "address"
        }
      ],
      "name": "balanceOf",
      "outputs": [
        {
          "internalType": "uint256",
          "name": "",
          "type": "uint256"
        }
      ],
      "stateMutability": "view",
      "type": "function",
      "constant": true
    },
    {
      "inputs": [],
      "name": "decimals",
      "outputs": [
        {
          "internalType": "uint8",
          "name": "",
          "type": "uint8"
        }
      ],
      "stateMutability": "view",
      "type": "function",
      "constant": true
    },
    {
      "inputs": [
        {
          "internalType": "address",
          "name": "spender",
          "type": "address"
        },
        {
          "internalType": "uint256",
          "name": "subtractedValue",
          "type": "uint256"
        }
      ],
      "name": "decreaseAllowance",
      "outputs": [
        {
          "internalType": "bool",
          "name": "",
          "type": "bool"
        }
      ],
      "stateMutability": "nonpayable",
      "type": "function"
    },
    {
      "inputs": [
        {
          "internalType": "address",
          "name": "spender",
          "type": "address"
        },
        {
          "internalType": "uint256",
          "name": "addedValue",
          "type": "uint256"
        }
      ],
      "name": "increaseAllowance",
      "outputs": [
        {
          "internalType": "bool",
          "name": "",
          "type": "bool"
        }
      ],
      "stateMutability": "nonpayable",
      "type": "function"
    },
    {
      "inputs": [],
      "name": "name",
      "outputs": [
        {
          "internalType": "string",
          "name": "",
          "type": "string"
        }
      ],
      "stateMutability": "view",
      "type": "function",
      "constant": true
    },
    {
      "inputs": [],
      "name": "owner",
      "outputs": [
        {
          "internalType": "address",
          "name": "",
          "type": "address"
        }
      ],
      "stateMutability": "view",
      "type": "function",
      "constant": true
    },
    {
      "inputs": [],
      "name": "renounceOwnership",
      "outputs": [],
      "stateMutability": "nonpayable",
      "type": "function"
    },
    {
      "inputs": [],
      "name": "symbol",
      "outputs": [
        {
          "internalType": "string",
          "name": "",
          "type": "string"
        }
      ],
      "stateMutability": "view",
      "type": "function",
      "constant": true
    },
    {
      "inputs": [],
      "name": "totalSupply",
      "outputs": [
        {
          "internalType": "uint256",
          "name": "",
          "type": "uint256"
        }
      ],
      "stateMutability": "view",
      "type": "function",
      "constant": true
    },
    {
      "inputs": [
        {
          "internalType": "address",
          "name": "to",
          "type": "address"
        },
        {
          "internalType": "uint256",
          "name": "amount",
          "type": "uint256"
        }
      ],
      "name": "transfer",
      "outputs": [
        {
          "internalType": "bool",
          "name": "",
          "type": "bool"
        }
      ],
      "stateMutability": "nonpayable",
      "type": "function"
    },
    {
      "inputs": [
        {
          "internalType": "address",
          "name": "from",
          "type": "address"
        },
        {
          "internalType": "address",
          "name": "to",
          "type": "address"
        },
        {
          "internalType": "uint256",
          "name": "amount",
          "type": "uint256"
        }
      ],
      "name": "transferFrom",
      "outputs": [
        {
          "internalType": "bool",
          "name": "",
          "type": "bool"
        }
      ],
      "stateMutability": "nonpayable",
      "type": "function"
    },
    {
      "inputs": [
        {
          "internalType": "address",
          "name": "newOwner",
          "type": "address"
        }
      ],
      "name": "transferOwnership",
      "outputs": [],
      "stateMutability": "nonpayable",
      "type": "function"
    },
    {
      "inputs": [
        {
          "internalType": "uint256",
          "name": "amount",
          "type": "uint256"
        }
      ],
      "name": "requestTokens",
      "outputs": [],
      "stateMutability": "nonpayable",
      "type": "function"
    },
    {
      "inputs": [
        {
          "internalType": "uint256",
          "name": "amount",
          "type": "uint256"
        }
      ],
      "name": "refill",
      "outputs": [],
      "stateMutability": "nonpayable",
      "type": "function"
    }
  ],
  "bytecode": "0x60806040523480156200001157600080fd5b50604080518082018252600781526626bcaa37b5b2b760c91b6020808301918252835180850190945260028452611b5d60f21b9084015281519192916200005b916003916200020d565b508051620000719060049060208401906200020d565b5050506200008e62000088620000cb60201b60201c565b620000cf565b60006200009a62000121565b620000a790600a6200035b565b620000b690620f424062000453565b9050620000c4338262000126565b50620004c8565b3390565b600580546001600160a01b038381166001600160a01b0319831681179093556040519116919082907f8be0079c531659141344cd1fd0a4f28419497f9722a3daafe3b4186f6b6457e090600090a35050565b601290565b6001600160a01b038216620001585760405162461bcd60e51b81526004016200014f90620002b3565b60405180910390fd5b620001666000838362000208565b80600260008282546200017a9190620002f3565b90915550506001600160a01b03821660009081526020819052604081208054839290620001a9908490620002f3565b90915550506040516001600160a01b038316906000907fddf252ad1be2c89b69c2b068fc378daa952ba7f163c4a11628f55a4df523b3ef90620001ee908590620002ea565b60405180910390a3620002046000838362000208565b5050565b505050565b8280546200021b9062000475565b90600052602060002090601f0160209004810192826200023f57600085556200028a565b82601f106200025a57805160ff19168380011785556200028a565b828001600101855582156200028a579182015b828111156200028a5782518255916020019190600101906200026d565b50620002989291506200029c565b5090565b5b808211156200029857600081556001016200029d565b6020808252601f908201527f45524332303a206d696e7420746f20746865207a65726f206164647265737300604082015260600190565b90815260200190565b60008219821115620003095762000309620004b2565b500190565b80825b600180861162000322575062000352565b818704821115620003375762000337620004b2565b808616156200034557918102915b9490941c93800262000311565b94509492505050565b60006200036f60001960ff85168462000376565b9392505050565b60008262000387575060016200036f565b8162000396575060006200036f565b8160018114620003af5760028114620003ba57620003ee565b60019150506200036f565b60ff841115620003ce57620003ce620004b2565b6001841b915084821115620003e757620003e7620004b2565b506200036f565b5060208310610133831016604e8410600b841016171562000426575081810a83811115620004205762000420620004b2565b6200036f565b6200043584848460016200030e565b8086048211156200044a576200044a620004b2565b02949350505050565b6000816000190483118215151615620004705762000470620004b2565b500290565b6002810460018216806200048a57607f821691505b60208210811415620004ac57634e487b7160e01b600052602260045260246000fd5b50919050565b634e487b7160e01b600052601160045260246000fd5b610cf780620004d86000396000f3fe608060405234801561001057600080fd5b50600436106101005760003560e01c80638da5cb5b11610097578063ca9d07ba11610066578063ca9d07ba146101f3578063dd62ed3e14610206578063eef9c27c14610219578063f2fde38b1461022c57610100565b80638da5cb5b146101b057806395d89b41146101c5578063a457c2d7146101cd578063a9059cbb146101e057610100565b8063313ce567116100d3578063313ce5671461016b578063395093511461018057806370a0823114610193578063715018a6146101a657610100565b806306fdde0314610105578063095ea7b31461012357806318160ddd1461014357806323b872dd14610158575b600080fd5b61010d61023f565b60405161011a919061096c565b60405180910390f35b61013661013136600461090c565b6102d1565b60405161011a9190610961565b61014b6102f3565b60405161011a9190610c4b565b6101366101663660046108d1565b6102f9565b610173610327565b60405161011a9190610c54565b61013661018e36600461090c565b61032c565b61014b6101a136600461087e565b610378565b6101ae610397565b005b6101b86103eb565b60405161011a919061094d565b61010d6103fa565b6101366101db36600461090c565b610409565b6101366101ee36600461090c565b61046a565b6101ae610201366004610935565b610482565b61014b61021436600461089f565b6104d7565b6101ae610227366004610935565b610502565b6101ae61023a36600461087e565b610579565b60606003805461024e90610c86565b80601f016020809104026020016040519081016040528092919081815260200182805461027a90610c86565b80156102c75780601f1061029c576101008083540402835291602001916102c7565b820191906000526020600020905b8154815290600101906020018083116102aa57829003601f168201915b5050505050905090565b6000806102dc6105ea565b90506102e98185856105ee565b5060019392505050565b60025490565b6000806103046105ea565b90506103118582856106a2565b61031c8585856106ec565b506001949350505050565b601290565b6000806103376105ea565b6001600160a01b038082166000908152600160209081526040808320938916835292905220549091506102e99082908690610373908790610c62565b6105ee565b6001600160a01b0381166000908152602081905260409020545b919050565b61039f6105ea565b6001600160a01b03166103b06103eb565b6001600160a01b0316146103df5760405162461bcd60e51b81526004016103d690610b07565b60405180910390fd5b6103e96000610810565b565b6005546001600160a01b031690565b60606004805461024e90610c86565b6000806104146105ea565b6001600160a01b038082166000908152600160209081526040808320938916835292905220549091508381101561045d5760405162461bcd60e51b81526004016103d690610c06565b61031c82868684036105ee565b6000806104756105ea565b90506102e98185856106ec565b61048a6105ea565b6001600160a01b031661049b6103eb565b6001600160a01b0316146104c15760405162461bcd60e51b81526004016103d690610b07565b6104d36104cc6103eb565b30836102f9565b5050565b6001600160a01b03918216600090815260016020908152604080832093909416825291909152205490565b8061050c30610378565b101561052a5760405162461bcd60e51b81526004016103d690610b3c565b610534338261046a565b50336001600160a01b03167ff18d5a93c62c1d0c761ed52107f11d20bc2071851206b79c4dd3283bd9f006f18260405161056e9190610c4b565b60405180910390a250565b6105816105ea565b6001600160a01b03166105926103eb565b6001600160a01b0316146105b85760405162461bcd60e51b81526004016103d690610b07565b6001600160a01b0381166105de5760405162461bcd60e51b81526004016103d690610a02565b6105e781610810565b50565b3390565b6001600160a01b0383166106145760405162461bcd60e51b81526004016103d690610bc2565b6001600160a01b03821661063a5760405162461bcd60e51b81526004016103d690610a48565b6001600160a01b0380841660008181526001602090815260408083209487168084529490915290819020849055517f8c5be1e5ebec7d5bd14f71427d1e84f3dd0314c0f7b2291e5b200ac8c7c3b92590610695908590610c4b565b60405180910390a3505050565b60006106ae84846104d7565b905060001981146106e657818110156106d95760405162461bcd60e51b81526004016103d690610a8a565b6106e684848484036105ee565b50505050565b6001600160a01b0383166107125760405162461bcd60e51b81526004016103d690610b7d565b6001600160a01b0382166107385760405162461bcd60e51b81526004016103d6906109bf565b610743838383610862565b6001600160a01b0383166000908152602081905260409020548181101561077c5760405162461bcd60e51b81526004016103d690610ac1565b6001600160a01b038085166000908152602081905260408082208585039055918516815290812080548492906107b3908490610c62565b92505081905550826001600160a01b0316846001600160a01b03167fddf252ad1be2c89b69c2b068fc378daa952ba7f163c4a11628f55a4df523b3ef846040516107fd9190610c4b565b60405180910390a36106e6848484610862565b600580546001600160a01b038381166001600160a01b0319831681179093556040519116919082907f8be0079c531659141344cd1fd0a4f28419497f9722a3daafe3b4186f6b6457e090600090a35050565b505050565b80356001600160a01b038116811461039257600080fd5b60006020828403121561088f578081fd5b61089882610867565b9392505050565b600080604083850312156108b1578081fd5b6108ba83610867565b91506108c860208401610867565b90509250929050565b6000806000606084860312156108e5578081fd5b6108ee84610867565b92506108fc60208501610867565b9150604084013590509250925092565b6000806040838503121561091e578182fd5b61092783610867565b946020939093013593505050565b600060208284031215610946578081fd5b5035919050565b6001600160a01b0391909116815260200190565b901515815260200190565b6000602080835283518082850152825b818110156109985785810183015185820160400152820161097c565b818111156109a95783604083870101525b50601f01601f1916929092016040019392505050565b60208082526023908201527f45524332303a207472616e7366657220746f20746865207a65726f206164647260408201526265737360e81b606082015260800190565b60208082526026908201527f4f776e61626c653a206e6577206f776e657220697320746865207a65726f206160408201526564647265737360d01b606082015260800190565b60208082526022908201527f45524332303a20617070726f766520746f20746865207a65726f206164647265604082015261737360f01b606082015260800190565b6020808252601d908201527f45524332303a20696e73756666696369656e7420616c6c6f77616e6365000000604082015260600190565b60208082526026908201527f45524332303a207472616e7366657220616d6f756e7420657863656564732062604082015265616c616e636560d01b606082015260800190565b6020808252818101527f4f776e61626c653a2063616c6c6572206973206e6f7420746865206f776e6572604082015260600190565b60208082526021908201527f496e73756666696369656e7420746f6b656e7320696e207468652066617563656040820152601d60fa1b606082015260800190565b60208082526025908201527f45524332303a207472616e736665722066726f6d20746865207a65726f206164604082015264647265737360d81b606082015260800190565b60208082526024908201527f45524332303a20617070726f76652066726f6d20746865207a65726f206164646040820152637265737360e01b606082015260800190565b60208082526025908201527f45524332303a2064656372656173656420616c6c6f77616e63652062656c6f77604082015264207a65726f60d81b606082015260800190565b90815260200190565b60ff91909116815260200190565b60008219821115610c8157634e487b7160e01b81526011600452602481fd5b500190565b600281046001821680610c9a57607f821691505b60208210811415610cbb57634e487b7160e01b600052602260045260246000fd5b5091905056fea2646970667358221220ef637e47a8a524f7294e303da8765cf22fd125cb9caa231988704a39ca25894664736f6c63430008000033",
  "immutableReferences": {},
  "source": "// SPDX-License-Identifier: MIT\npragma solidity ^0.8.0;\n\nimport \"@openzeppelin/contracts/token/ERC20/ERC20.sol\";\nimport \"@openzeppelin/contracts/access/Ownable.sol\";\n\ncontract MyToken is ERC20, Ownable {\n    event TokensSent(address indexed to, uint256 amount);\n\n    constructor() ERC20(\"MyToken\", \"mt\") {\n        uint256 initialSupply = 1000000 * (10**decimals()); // Adjust the initial supply as needed\n        _mint(msg.sender, initialSupply);\n    }\n\n    function requestTokens(uint256 amount) external {\n        require(balanceOf(address(this)) >= amount, \"Insufficient tokens in the faucet\");\n        transfer(msg.sender, amount);\n        emit TokensSent(msg.sender, amount);\n    }\n\n    function refill(uint256 amount) external onlyOwner {\n        transferFrom(owner(), address(this), amount);\n    }\n}\n",
  "sourcePath": "/goinfre/amya/tokenizer_42/deployment/contracts/MyToken.sol",
  "compiler": {
    "name": "solc",
    "version": "0.8.0+commit.c7dfd78e.Emscripten.clang"
  },
  "schemaVersion": "3.4.16",
  "updatedAt": "2024-03-05T23:59:01.615Z",
  "networkType": "ethereum",
  "devdoc": {
    "kind": "dev",
    "methods": {
      "allowance(address,address)": {
        "details": "See {IERC20-allowance}."
      },
      "approve(address,uint256)": {
        "details": "See {IERC20-approve}. NOTE: If `amount` is the maximum `uint256`, the allowance is not updated on `transferFrom`. This is semantically equivalent to an infinite approval. Requirements: - `spender` cannot be the zero address."
      },
      "balanceOf(address)": {
        "details": "See {IERC20-balanceOf}."
      },
      "decimals()": {
        "details": "Returns the number of decimals used to get its user representation. For example, if `decimals` equals `2`, a balance of `505` tokens should be displayed to a user as `5.05` (`505 / 10 ** 2`). Tokens usually opt for a value of 18, imitating the relationship between Ether and Wei. This is the value {ERC20} uses, unless this function is overridden; NOTE: This information is only used for _display_ purposes: it in no way affects any of the arithmetic of the contract, including {IERC20-balanceOf} and {IERC20-transfer}."
      },
      "decreaseAllowance(address,uint256)": {
        "details": "Atomically decreases the allowance granted to `spender` by the caller. This is an alternative to {approve} that can be used as a mitigation for problems described in {IERC20-approve}. Emits an {Approval} event indicating the updated allowance. Requirements: - `spender` cannot be the zero address. - `spender` must have allowance for the caller of at least `subtractedValue`."
      },
      "increaseAllowance(address,uint256)": {
        "details": "Atomically increases the allowance granted to `spender` by the caller. This is an alternative to {approve} that can be used as a mitigation for problems described in {IERC20-approve}. Emits an {Approval} event indicating the updated allowance. Requirements: - `spender` cannot be the zero address."
      },
      "name()": {
        "details": "Returns the name of the token."
      },
      "owner()": {
        "details": "Returns the address of the current owner."
      },
      "renounceOwnership()": {
        "details": "Leaves the contract without owner. It will not be possible to call `onlyOwner` functions anymore. Can only be called by the current owner. NOTE: Renouncing ownership will leave the contract without an owner, thereby removing any functionality that is only available to the owner."
      },
      "symbol()": {
        "details": "Returns the symbol of the token, usually a shorter version of the name."
      },
      "totalSupply()": {
        "details": "See {IERC20-totalSupply}."
      },
      "transfer(address,uint256)": {
        "details": "See {IERC20-transfer}. Requirements: - `to` cannot be the zero address. - the caller must have a balance of at least `amount`."
      },
      "transferFrom(address,address,uint256)": {
        "details": "See {IERC20-transferFrom}. Emits an {Approval} event indicating the updated allowance. This is not required by the EIP. See the note at the beginning of {ERC20}. NOTE: Does not update the allowance if the current allowance is the maximum `uint256`. Requirements: - `from` and `to` cannot be the zero address. - `from` must have a balance of at least `amount`. - the caller must have allowance for ``from``'s tokens of at least `amount`."
      },
      "transferOwnership(address)": {
        "details": "Transfers ownership of the contract to a new account (`newOwner`). Can only be called by the current owner."
      }
    },
    "version": 1
  },
  "userdoc": {
    "kind": "user",
    "methods": {},
    "version": 1
  }
}