{
  "contractName": "Pong42",
  "abi": [
    {
      "inputs": [
        {
          "internalType": "uint256",
          "name": "cap",
          "type": "uint256"
        }
      ],
      "stateMutability": "nonpayable",
      "type": "constructor"
    },
    {
      "anonymous": false,
      "inputs": [
        {
          "indexed": true,
          "internalType": "address",
          "name": "owner",
          "type": "address"
        },
        {
          "indexed": true,
          "internalType": "address",
          "name": "spender",
          "type": "address"
        },
        {
          "indexed": false,
          "internalType": "uint256",
          "name": "value",
          "type": "uint256"
        }
      ],
      "name": "Approval",
      "type": "event"
    },
    {
      "anonymous": false,
      "inputs": [
        {
          "indexed": true,
          "internalType": "address",
          "name": "previousOwner",
          "type": "address"
        },
        {
          "indexed": true,
          "internalType": "address",
          "name": "newOwner",
          "type": "address"
        }
      ],
      "name": "OwnershipTransferred",
      "type": "event"
    },
    {
      "anonymous": false,
      "inputs": [
        {
          "indexed": true,
          "internalType": "address",
          "name": "from",
          "type": "address"
        },
        {
          "indexed": true,
          "internalType": "address",
          "name": "to",
          "type": "address"
        },
        {
          "indexed": false,
          "internalType": "uint256",
          "name": "value",
          "type": "uint256"
        }
      ],
      "name": "Transfer",
      "type": "event"
    },
    {
      "inputs": [
        {
          "internalType": "address",
          "name": "owner",
          "type": "address"
        },
        {
          "internalType": "address",
          "name": "spender",
          "type": "address"
        }
      ],
      "name": "allowance",
      "outputs": [
        {
          "internalType": "uint256",
          "name": "",
          "type": "uint256"
        }
      ],
      "stateMutability": "view",
      "type": "function",
      "constant": true
    },
    {
      "inputs": [
        {
          "internalType": "address",
          "name": "spender",
          "type": "address"
        },
        {
          "internalType": "uint256",
          "name": "amount",
          "type": "uint256"
        }
      ],
      "name": "approve",
      "outputs": [
        {
          "internalType": "bool",
          "name": "",
          "type": "bool"
        }
      ],
      "stateMutability": "nonpayable",
      "type": "function"
    },
    {
      "inputs": [
        {
          "internalType": "address",
          "name": "account",
          "type": "address"
        }
      ],
      "name": "balanceOf",
      "outputs": [
        {
          "internalType": "uint256",
          "name": "",
          "type": "uint256"
        }
      ],
      "stateMutability": "view",
      "type": "function",
      "constant": true
    },
    {
      "inputs": [],
      "name": "cap",
      "outputs": [
        {
          "internalType": "uint256",
          "name": "",
          "type": "uint256"
        }
      ],
      "stateMutability": "view",
      "type": "function",
      "constant": true
    },
    {
      "inputs": [],
      "name": "decimals",
      "outputs": [
        {
          "internalType": "uint8",
          "name": "",
          "type": "uint8"
        }
      ],
      "stateMutability": "view",
      "type": "function",
      "constant": true
    },
    {
      "inputs": [
        {
          "internalType": "address",
          "name": "spender",
          "type": "address"
        },
        {
          "internalType": "uint256",
          "name": "subtractedValue",
          "type": "uint256"
        }
      ],
      "name": "decreaseAllowance",
      "outputs": [
        {
          "internalType": "bool",
          "name": "",
          "type": "bool"
        }
      ],
      "stateMutability": "nonpayable",
      "type": "function"
    },
    {
      "inputs": [
        {
          "internalType": "address",
          "name": "spender",
          "type": "address"
        },
        {
          "internalType": "uint256",
          "name": "addedValue",
          "type": "uint256"
        }
      ],
      "name": "increaseAllowance",
      "outputs": [
        {
          "internalType": "bool",
          "name": "",
          "type": "bool"
        }
      ],
      "stateMutability": "nonpayable",
      "type": "function"
    },
    {
      "inputs": [],
      "name": "name",
      "outputs": [
        {
          "internalType": "string",
          "name": "",
          "type": "string"
        }
      ],
      "stateMutability": "view",
      "type": "function",
      "constant": true
    },
    {
      "inputs": [],
      "name": "owner",
      "outputs": [
        {
          "internalType": "address",
          "name": "",
          "type": "address"
        }
      ],
      "stateMutability": "view",
      "type": "function",
      "constant": true
    },
    {
      "inputs": [],
      "name": "renounceOwnership",
      "outputs": [],
      "stateMutability": "nonpayable",
      "type": "function"
    },
    {
      "inputs": [],
      "name": "symbol",
      "outputs": [
        {
          "internalType": "string",
          "name": "",
          "type": "string"
        }
      ],
      "stateMutability": "view",
      "type": "function",
      "constant": true
    },
    {
      "inputs": [],
      "name": "totalSupply",
      "outputs": [
        {
          "internalType": "uint256",
          "name": "",
          "type": "uint256"
        }
      ],
      "stateMutability": "view",
      "type": "function",
      "constant": true
    },
    {
      "inputs": [
        {
          "internalType": "address",
          "name": "to",
          "type": "address"
        },
        {
          "internalType": "uint256",
          "name": "amount",
          "type": "uint256"
        }
      ],
      "name": "transfer",
      "outputs": [
        {
          "internalType": "bool",
          "name": "",
          "type": "bool"
        }
      ],
      "stateMutability": "nonpayable",
      "type": "function"
    },
    {
      "inputs": [
        {
          "internalType": "address",
          "name": "from",
          "type": "address"
        },
        {
          "internalType": "address",
          "name": "to",
          "type": "address"
        },
        {
          "internalType": "uint256",
          "name": "amount",
          "type": "uint256"
        }
      ],
      "name": "transferFrom",
      "outputs": [
        {
          "internalType": "bool",
          "name": "",
          "type": "bool"
        }
      ],
      "stateMutability": "nonpayable",
      "type": "function"
    },
    {
      "inputs": [
        {
          "internalType": "address",
          "name": "newOwner",
          "type": "address"
        }
      ],
      "name": "transferOwnership",
      "outputs": [],
      "stateMutability": "nonpayable",
      "type": "function"
    },
    {
      "inputs": [
        {
          "internalType": "address",
          "name": "to",
          "type": "address"
        },
        {
          "internalType": "uint256",
          "name": "amount",
          "type": "uint256"
        }
      ],
      "name": "mintTokens",
      "outputs": [],
      "stateMutability": "nonpayable",
      "type": "function"
    },
    {
      "inputs": [
        {
          "internalType": "address",
          "name": "to",
          "type": "address"
        },
        {
          "internalType": "uint256",
          "name": "amount",
          "type": "uint256"
        }
      ],
      "name": "transferTokens",
      "outputs": [
        {
          "internalType": "bool",
          "name": "",
          "type": "bool"
        }
      ],
      "stateMutability": "nonpayable",
      "type": "function"
    },
    {
      "inputs": [
        {
          "internalType": "address",
          "name": "from",
          "type": "address"
        },
        {
          "internalType": "address",
          "name": "to",
          "type": "address"
        },
        {
          "internalType": "uint256",
          "name": "amount",
          "type": "uint256"
        }
      ],
      "name": "transferTokensFrom",
      "outputs": [
        {
          "internalType": "bool",
          "name": "",
          "type": "bool"
        }
      ],
      "stateMutability": "nonpayable",
      "type": "function"
    },
    {
      "inputs": [
        {
          "internalType": "address",
          "name": "account",
          "type": "address"
        }
      ],
      "name": "getTokenBalance",
      "outputs": [
        {
          "internalType": "uint256",
          "name": "",
          "type": "uint256"
        }
      ],
      "stateMutability": "view",
      "type": "function",
      "constant": true
    },
    {
      "inputs": [
        {
          "internalType": "address",
          "name": "owner",
          "type": "address"
        },
        {
          "internalType": "address",
          "name": "spender",
          "type": "address"
        }
      ],
      "name": "getTokenAllowance",
      "outputs": [
        {
          "internalType": "uint256",
          "name": "",
          "type": "uint256"
        }
      ],
      "stateMutability": "view",
      "type": "function",
      "constant": true
    }
  ],
  "bytecode": "0x60a06040523480156200001157600080fd5b5060405162001139380380620011398339810160408190526200003491620001de565b60408051808201825260068152652837b7339a1960d11b60208083019182528351808501909452600380855262281a1960e91b9185019190915282518594926200007f929162000138565b5080516200009590600490602084019062000138565b50505060008111620000c45760405162461bcd60e51b8152600401620000bb90620001f7565b60405180910390fd5b608052620000db620000d5620000e2565b620000e6565b506200026b565b3390565b600580546001600160a01b038381166001600160a01b0319831681179093556040519116919082907f8be0079c531659141344cd1fd0a4f28419497f9722a3daafe3b4186f6b6457e090600090a35050565b82805462000146906200022e565b90600052602060002090601f0160209004810192826200016a5760008555620001b5565b82601f106200018557805160ff1916838001178555620001b5565b82800160010185558215620001b5579182015b82811115620001b557825182559160200191906001019062000198565b50620001c3929150620001c7565b5090565b5b80821115620001c35760008155600101620001c8565b600060208284031215620001f0578081fd5b5051919050565b60208082526015908201527f45524332304361707065643a2063617020697320300000000000000000000000604082015260600190565b6002810460018216806200024357607f821691505b602082108114156200026557634e487b7160e01b600052602260045260246000fd5b50919050565b608051610eb262000287600039600061039b0152610eb26000f3fe608060405234801561001057600080fd5b506004361061012c5760003560e01c8063715018a6116100ad578063bec3fa1711610071578063bec3fa171461024d578063dd62ed3e14610260578063ea7ee01014610273578063f0dda65c14610286578063f2fde38b146102995761012c565b8063715018a6146102005780638da5cb5b1461020a57806395d89b411461021f578063a457c2d714610227578063a9059cbb1461023a5761012c565b8063355274ea116100f4578063355274ea146101ac57806339509351146101b45780633aecd0e3146101c757806352912042146101da57806370a08231146101ed5761012c565b806306fdde0314610131578063095ea7b31461014f57806318160ddd1461016f57806323b872dd14610184578063313ce56714610197575b600080fd5b6101396102ac565b6040516101469190610ad9565b60405180910390f35b61016261015d366004610a91565b61033e565b6040516101469190610ace565b610177610360565b6040516101469190610de5565b610162610192366004610a56565b610366565b61019f610394565b6040516101469190610dee565b610177610399565b6101626101c2366004610a91565b6103bd565b6101776101d5366004610a0a565b610409565b6101626101e8366004610a56565b61041c565b6101776101fb366004610a0a565b61044c565b610208610467565b005b6102126104bb565b6040516101469190610aba565b6101396104ca565b610162610235366004610a91565b6104d9565b610162610248366004610a91565b61053a565b61016261025b366004610a91565b610552565b61017761026e366004610a24565b61056f565b610177610281366004610a24565b61059a565b610208610294366004610a91565b6105ad565b6102086102a7366004610a0a565b6105fa565b6060600380546102bb90610e2b565b80601f01602080910402602001604051908101604052809291908181526020018280546102e790610e2b565b80156103345780601f1061030957610100808354040283529160200191610334565b820191906000526020600020905b81548152906001019060200180831161031757829003601f168201915b5050505050905090565b60008061034961066b565b905061035681858561066f565b5060019392505050565b60025490565b60008061037161066b565b905061037e858285610723565b61038985858561076d565b506001949350505050565b601290565b7f000000000000000000000000000000000000000000000000000000000000000090565b6000806103c861066b565b6001600160a01b038082166000908152600160209081526040808320938916835292905220549091506103569082908690610404908790610dfc565b61066f565b60006104148261044c565b90505b919050565b600061042984848461076d565b6103568461043561066b565b846104428861026e61066b565b6104049190610e14565b6001600160a01b031660009081526020819052604090205490565b61046f61066b565b6001600160a01b03166104806104bb565b6001600160a01b0316146104af5760405162461bcd60e51b81526004016104a690610c74565b60405180910390fd5b6104b96000610891565b565b6005546001600160a01b031690565b6060600480546102bb90610e2b565b6000806104e461066b565b6001600160a01b038082166000908152600160209081526040808320938916835292905220549091508381101561052d5760405162461bcd60e51b81526004016104a690610d69565b610389828686840361066f565b60008061054561066b565b905061035681858561076d565b600061056661055f61066b565b848461076d565b50600192915050565b6001600160a01b03918216600090815260016020908152604080832093909416825291909152205490565b60006105a6838361056f565b9392505050565b6105b561066b565b6001600160a01b03166105c66104bb565b6001600160a01b0316146105ec5760405162461bcd60e51b81526004016104a690610c74565b6105f682826108e3565b5050565b61060261066b565b6001600160a01b03166106136104bb565b6001600160a01b0316146106395760405162461bcd60e51b81526004016104a690610c74565b6001600160a01b03811661065f5760405162461bcd60e51b81526004016104a690610b6f565b61066881610891565b50565b3390565b6001600160a01b0383166106955760405162461bcd60e51b81526004016104a690610d25565b6001600160a01b0382166106bb5760405162461bcd60e51b81526004016104a690610bb5565b6001600160a01b0380841660008181526001602090815260408083209487168084529490915290819020849055517f8c5be1e5ebec7d5bd14f71427d1e84f3dd0314c0f7b2291e5b200ac8c7c3b92590610716908590610de5565b60405180910390a3505050565b600061072f848461056f565b90506000198114610767578181101561075a5760405162461bcd60e51b81526004016104a690610bf7565b610767848484840361066f565b50505050565b6001600160a01b0383166107935760405162461bcd60e51b81526004016104a690610ca9565b6001600160a01b0382166107b95760405162461bcd60e51b81526004016104a690610b2c565b6107c4838383610926565b6001600160a01b038316600090815260208190526040902054818110156107fd5760405162461bcd60e51b81526004016104a690610c2e565b6001600160a01b03808516600090815260208190526040808220858503905591851681529081208054849290610834908490610dfc565b92505081905550826001600160a01b0316846001600160a01b03167fddf252ad1be2c89b69c2b068fc378daa952ba7f163c4a11628f55a4df523b3ef8460405161087e9190610de5565b60405180910390a3610767848484610926565b600580546001600160a01b038381166001600160a01b0319831681179093556040519116919082907f8be0079c531659141344cd1fd0a4f28419497f9722a3daafe3b4186f6b6457e090600090a35050565b6108eb610399565b816108f4610360565b6108fe9190610dfc565b111561091c5760405162461bcd60e51b81526004016104a690610cee565b6105f6828261092b565b505050565b6001600160a01b0382166109515760405162461bcd60e51b81526004016104a690610dae565b61095d60008383610926565b806002600082825461096f9190610dfc565b90915550506001600160a01b0382166000908152602081905260408120805483929061099c908490610dfc565b90915550506040516001600160a01b038316906000907fddf252ad1be2c89b69c2b068fc378daa952ba7f163c4a11628f55a4df523b3ef906109df908590610de5565b60405180910390a36105f660008383610926565b80356001600160a01b038116811461041757600080fd5b600060208284031215610a1b578081fd5b6105a6826109f3565b60008060408385031215610a36578081fd5b610a3f836109f3565b9150610a4d602084016109f3565b90509250929050565b600080600060608486031215610a6a578081fd5b610a73846109f3565b9250610a81602085016109f3565b9150604084013590509250925092565b60008060408385031215610aa3578182fd5b610aac836109f3565b946020939093013593505050565b6001600160a01b0391909116815260200190565b901515815260200190565b6000602080835283518082850152825b81811015610b0557858101830151858201604001528201610ae9565b81811115610b165783604083870101525b50601f01601f1916929092016040019392505050565b60208082526023908201527f45524332303a207472616e7366657220746f20746865207a65726f206164647260408201526265737360e81b606082015260800190565b60208082526026908201527f4f776e61626c653a206e6577206f776e657220697320746865207a65726f206160408201526564647265737360d01b606082015260800190565b60208082526022908201527f45524332303a20617070726f766520746f20746865207a65726f206164647265604082015261737360f01b606082015260800190565b6020808252601d908201527f45524332303a20696e73756666696369656e7420616c6c6f77616e6365000000604082015260600190565b60208082526026908201527f45524332303a207472616e7366657220616d6f756e7420657863656564732062604082015265616c616e636560d01b606082015260800190565b6020808252818101527f4f776e61626c653a2063616c6c6572206973206e6f7420746865206f776e6572604082015260600190565b60208082526025908201527f45524332303a207472616e736665722066726f6d20746865207a65726f206164604082015264647265737360d81b606082015260800190565b60208082526019908201527f45524332304361707065643a2063617020657863656564656400000000000000604082015260600190565b60208082526024908201527f45524332303a20617070726f76652066726f6d20746865207a65726f206164646040820152637265737360e01b606082015260800190565b60208082526025908201527f45524332303a2064656372656173656420616c6c6f77616e63652062656c6f77604082015264207a65726f60d81b606082015260800190565b6020808252601f908201527f45524332303a206d696e7420746f20746865207a65726f206164647265737300604082015260600190565b90815260200190565b60ff91909116815260200190565b60008219821115610e0f57610e0f610e66565b500190565b600082821015610e2657610e26610e66565b500390565b600281046001821680610e3f57607f821691505b60208210811415610e6057634e487b7160e01b600052602260045260246000fd5b50919050565b634e487b7160e01b600052601160045260246000fdfea2646970667358221220fca5ff8fc3f4b060995fb6b147f710b7a8070576fb43129acb9ba924d50f289f64736f6c63430008000033",
  "immutableReferences": {
    "778": [
      {
        "length": 32,
        "start": 923
      }
    ]
  },
  "source": "// SPDX-License-Identifier: MIT\npragma solidity ^0.8.0;\n\nimport \"@openzeppelin/contracts/token/ERC20/extensions/ERC20Capped.sol\";\nimport \"@openzeppelin/contracts/access/Ownable.sol\";\n\ncontract Pong42 is ERC20Capped, Ownable {\n    constructor(uint256 cap) ERC20(\"Pong42\", \"P42\") ERC20Capped(cap) {}\n\n    function mintTokens(address to, uint256 amount) external onlyOwner {\n        _mint(to, amount);\n    }\n\n    function transferTokens(address to, uint256 amount) external returns (bool) {\n        _transfer(_msgSender(), to, amount);\n        return true;\n    }\n\n    function transferTokensFrom(\n        address from,\n        address to,\n        uint256 amount\n    ) external returns (bool) {\n        _transfer(from, to, amount);\n        _approve(\n            from,\n            _msgSender(),\n            allowance(from, _msgSender()) - amount\n        );\n        return true;\n    }\n\n    function getTokenBalance(address account) external view returns (uint256) {\n        return balanceOf(account);\n    }\n\n    function getTokenAllowance(address owner, address spender)\n        external\n        view\n        returns (uint256)\n    {\n        return allowance(owner, spender);\n    }\n}\n",
  "sourcePath": "/goinfre/amya/tokenizer_42/deployment/contracts/Pong42.sol",
  "compiler": {
    "name": "solc",
    "version": "0.8.0+commit.c7dfd78e.Emscripten.clang"
  },
  "schemaVersion": "3.4.16",
  "updatedAt": "2024-03-05T04:45:01.558Z",
  "networkType": "ethereum",
  "devdoc": {
    "kind": "dev",
    "methods": {
      "allowance(address,address)": {
        "details": "See {IERC20-allowance}."
      },
      "approve(address,uint256)": {
        "details": "See {IERC20-approve}. NOTE: If `amount` is the maximum `uint256`, the allowance is not updated on `transferFrom`. This is semantically equivalent to an infinite approval. Requirements: - `spender` cannot be the zero address."
      },
      "balanceOf(address)": {
        "details": "See {IERC20-balanceOf}."
      },
      "cap()": {
        "details": "Returns the cap on the token's total supply."
      },
      "decimals()": {
        "details": "Returns the number of decimals used to get its user representation. For example, if `decimals` equals `2`, a balance of `505` tokens should be displayed to a user as `5.05` (`505 / 10 ** 2`). Tokens usually opt for a value of 18, imitating the relationship between Ether and Wei. This is the value {ERC20} uses, unless this function is overridden; NOTE: This information is only used for _display_ purposes: it in no way affects any of the arithmetic of the contract, including {IERC20-balanceOf} and {IERC20-transfer}."
      },
      "decreaseAllowance(address,uint256)": {
        "details": "Atomically decreases the allowance granted to `spender` by the caller. This is an alternative to {approve} that can be used as a mitigation for problems described in {IERC20-approve}. Emits an {Approval} event indicating the updated allowance. Requirements: - `spender` cannot be the zero address. - `spender` must have allowance for the caller of at least `subtractedValue`."
      },
      "increaseAllowance(address,uint256)": {
        "details": "Atomically increases the allowance granted to `spender` by the caller. This is an alternative to {approve} that can be used as a mitigation for problems described in {IERC20-approve}. Emits an {Approval} event indicating the updated allowance. Requirements: - `spender` cannot be the zero address."
      },
      "name()": {
        "details": "Returns the name of the token."
      },
      "owner()": {
        "details": "Returns the address of the current owner."
      },
      "renounceOwnership()": {
        "details": "Leaves the contract without owner. It will not be possible to call `onlyOwner` functions anymore. Can only be called by the current owner. NOTE: Renouncing ownership will leave the contract without an owner, thereby removing any functionality that is only available to the owner."
      },
      "symbol()": {
        "details": "Returns the symbol of the token, usually a shorter version of the name."
      },
      "totalSupply()": {
        "details": "See {IERC20-totalSupply}."
      },
      "transfer(address,uint256)": {
        "details": "See {IERC20-transfer}. Requirements: - `to` cannot be the zero address. - the caller must have a balance of at least `amount`."
      },
      "transferFrom(address,address,uint256)": {
        "details": "See {IERC20-transferFrom}. Emits an {Approval} event indicating the updated allowance. This is not required by the EIP. See the note at the beginning of {ERC20}. NOTE: Does not update the allowance if the current allowance is the maximum `uint256`. Requirements: - `from` and `to` cannot be the zero address. - `from` must have a balance of at least `amount`. - the caller must have allowance for ``from``'s tokens of at least `amount`."
      },
      "transferOwnership(address)": {
        "details": "Transfers ownership of the contract to a new account (`newOwner`). Can only be called by the current owner."
      }
    },
    "version": 1
  },
  "userdoc": {
    "kind": "user",
    "methods": {},
    "version": 1
  }
}